:100000000C9434000C9451000C9451000C94510049
:100010000C9451000C9451000C9451000C9451001C
:100020000C9451000C9451000C9451000C9451000C
:100030000C9451000C9451000C9451000C945100FC
:100040000C9451000C9451000C94C8020C94F602CC
:100050000C9451000C9451000C9451000C945100DC
:100060000C9451000C94510011241FBECFEFD8E026
:10007000DEBFCDBF11E0A0E0B1E0E2EEFFE002C0E4
:1000800005900D92AE30B107D9F721E0AEE0B1E0B6
:1000900001C01D92AE36B207E1F70E94C0010C9478
:1000A000EF070C9400004FE260E282E30E94E00060
:1000B00040E063E282E30E94E00082E30E9473007A
:1000C0000895AC0169E282E30E94C4000895AC0186
:1000D0006BE282E30E94C4000895AC016DE282E30A
:1000E0000E94C400089594EA9093BC00ECEBF0E009
:1000F00090819923ECF78093BB0084E88093BC0047
:10010000ECEBF0E080818823ECF708958093BB004E
:1001100084E88093BC00ECEBF0E080818823ECF76E
:10012000089584E88093BC00ECEBF0E080818823A4
:10013000ECF78091BB000895CF93DF93ECEBF0E0F8
:1001400024EAA9EBB0E0CBEBD0E034E844E920832B
:1001500090819923ECF79C91987F983011F0903121
:10016000B1F78883308390819923ECF79C91987F35
:10017000903211F0983529F44083908194FDFDCFA1
:10018000E6CFDF91CF9108950F931F93CF93DF9325
:10019000C82FD62F8A010E949C008D2F0E948600B6
:1001A00081E08C0F0E9473000E949100F80180830F
:1001B00084E98093BC00DF91CF911F910F91089546
:1001C000CF93DF93D62FC42F0E949C008D2F0E94C7
:1001D00086008C2F0E94860084E98093BC00DF910A
:1001E000CF9108954AE16BE182ED0E94E00049E081
:1001F0006BE682ED0E94E00040E06CE682ED0E943A
:10020000E00082ED0E9473000895CF93DF93EC012C
:10021000AC0163E482ED0E94C400AE014F5F5F4F0A
:1002200064E482ED0E94C400DF91CF910895CF93E2
:10023000DF93EC01AC0165E482ED0E94C400AE01E5
:100240004F5F5F4F66E482ED0E94C400DF91CF9163
:100250000895CF93DF93EC01AC0167E482ED0E9437
:10026000C400AE014F5F5F4F68E482ED0E94C4009E
:10027000DF91CF9108950F931F93CF93DF9300D019
:10028000CDB7DEB78C01CE0101960E9405018981B0
:1002900090E0982F88272A81822BF8019183808310
:1002A000CE0101960E941701898190E0982F88273E
:1002B0002A81822BF80193838283CE0101960E94CA
:1002C0002901898190E0982F88272A81822BF801C3
:1002D000958384830F900F90DF91CF911F910F91A1
:1002E0000895CF93DF93CDB7DEB727970FB6F89475
:1002F000DEBF0FBECDBF4AE0BE016F5F7F4F0E94E1
:10030000D004CE0101960E94680327960FB6F89498
:10031000DEBF0FBECDBFDF91CF9108950F931F9326
:10032000CF93DF93CDB7DEB7C456D1090FB6F8949B
:10033000DEBF0FBECDBF5F934F937F936F939F93AD
:100340008F9380E091E09F938F938E010F5F1F4FFB
:100350001F930F930E94F504C8010E9468030FB613
:10036000F894DEBF0FBECDBFCC59DF4F0FB6F89467
:10037000DEBF0FBECDBFDF91CF911F910F910895CA
:1003800087E690E00E9420030E94F2000E94530042
:1003900078940CE013E00F2EF8EE2F2EF3E03F2EB2
:1003A000F02D0E9439038133E1F70E943903803335
:1003B000C1F384E691E00E943B01C4E6D1E068818C
:1003C0007981072E000C880B990B0E94AF03609374
:1003D00060017093610180936201909363016A816F
:1003E0007B81072E000C880B990B0E94AF03609352
:1003F0005C0170935D0180935E0190935F016C815D
:100400007D81072E000C880B990B0E94AF0360932F
:10041000550170935601809357019093580189E5D7
:1004200091E00E946100C9E5D1E028812003C0016C
:10043000219F900D1124B1010E94A804CB0170935B
:100440006D0160936C010E94710189E091E00E944E
:100450006803CE010E94670028812003C001219F0C
:10046000900D1124B1010E94A804CB017093540196
:10047000609353010E94710189E091E00E9468033A
:10048000CE010E946D0028812003C001219F900DA4
:100490001124B1010E94A804CB0170936B016093F9
:1004A0006A010E9471018BE091E00E9468032FE7CE
:1004B00088E391E0215080409040E1F700C00000C7
:1004C00029E23CE54FE85DE36091600170916101D4
:1004D00080916201909163010E9413046B017C0181
:1004E0006093600170936101809362019093630156
:1004F00029E23CE54FE85DE360915C0170915D01AC
:1005000080915E0190915F010E9413042B013C01D8
:1005100060935C0170935D0180935E0190935F0135
:1005200029E23CE54FE85DE3609155017091560189
:1005300080915701909158010E94130460935501D6
:100540007093560180935701909358010E9477034E
:100550004B015C01C301B2010E9477032B013C01F6
:10056000C701B6010E947703DC01CB01A401B201EF
:100570000E948E018BE091E00E9468032FEF80E7DC
:1005800092E0215080409040E1F700C000000DCF84
:100590001F920F920FB60F9211242F938F939F9358
:1005A000EF93FF938091C0002091C6008C71E09181
:1005B0001001EF5FEF7190910F01E91739F0E093AF
:1005C0001001F0E0ED5EFE4F208301C082E09091CB
:1005D0000E01892B80930E01FF91EF919F918F91D6
:1005E0002F910F900FBE0F901F9018951F920F9292
:1005F0000FB60F9211248F939F93EF93FF939091D7
:10060000120180911101981769F0E0911101EF5FDB
:10061000EF71E0931101F0E0ED5CFE4F808180937B
:10062000C60005C0E1ECF0E080818F7D8083FF9102
:10063000EF919F918F910F900FBE0F901F90189583
:1006400010921201109211011092100110920F01DC
:1006500099231CF422E02093C00090789093C50069
:100660008093C40088E98093C10086E08093C20033
:1006700008959091100180910F01981789F0909141
:100680000F019F5F9F71E92FF0E0ED5EFE4F8081CB
:1006900020910E0190930F0110920E0190E00895A9
:1006A00080E091E00895209112012F5F2F719091C9
:1006B00011012917E1F3E22FF0E0ED5CFE4F80839A
:1006C00020931201E1ECF0E0808180628083089544
:1006D000CF93DF93EC018881882331F021960E942B
:1006E000530389918111FBCFDF91CF9108950E942F
:1006F0007E036894B1110C940D0408950E94F203D6
:1007000088F09F5798F0B92F9927B751B0F0E1F0D2
:10071000660F771F881F991F1AF0BA95C9F714C082
:10072000B13091F00E940C04B1E008950C940C04D7
:10073000672F782F8827B85F39F0B93FCCF38695BB
:1007400077956795B395D9F73EF490958095709518
:1007500061957F4F8F4F9F4F0895E89409C097FB95
:100760003EF490958095709561957F4F8F4F9F4F88
:100770009923A9F0F92F96E9BB279395F6958795CC
:1007800077956795B795F111F8CFFAF4BB0F11F48F
:1007900060FF1BC06F5F7F4F8F4F9F4F16C0882336
:1007A00011F096E911C0772321F09EE8872F762F6C
:1007B00005C0662371F096E8862F70E060E02AF0AD
:1007C0009A95660F771F881FDAF7880F9695879599
:1007D00097F9089557FD9058440F551F59F05F3F02
:1007E00071F04795880F97FB991F61F09F3F79F053
:1007F00087950895121613061406551FF2CF4695D5
:10080000F1DF08C0161617061806991FF1CF869556
:100810007105610508940895E894BB27662777273A
:10082000CB0197F908950E9426040C9497040E9426
:10083000890438F00E94900420F0952311F00C9464
:1008400080040C94860411240C940D040E94EA0385
:1008500070F3959FC1F3950F50E0551F629FF00113
:10086000729FBB27F00DB11D639FAA27F00DB11D2C
:10087000AA1F649F6627B00DA11D661F829F2227B5
:10088000B00DA11D621F739FB00DA11D621F839F3C
:10089000A00D611D221F749F3327A00D611D231F12
:1008A000849F600D211D822F762F6A2F11249F5760
:1008B00050409AF0F1F088234AF0EE0FFF1FBB1F63
:1008C000661F771F881F91505040A9F79E3F510522
:1008D00080F00C9480040C940D045F3FE4F3983E88
:1008E000D4F3869577956795B795F795E7959F5FCC
:1008F000C1F7FE2B880F911D9695879597F908955E
:1009000097F99F6780E870E060E008959FEF80ECC2
:10091000089500240A941616170618060906089565
:1009200000240A9412161306140605060895092ECB
:100930000394000C11F4882352F0BB0F40F4BF2B3A
:1009400011F460FF04C06F5F7F4F8F4F9F4F08957A
:1009500097FB072E16F4009407D077FD09D00E946C
:10096000BC0407FC05D03EF4909581959F4F0895F7
:10097000709561957F4F0895AA1BBB1B51E107C07D
:10098000AA1FBB1FA617B70710F0A61BB70B881F1F
:10099000991F5A95A9F780959095BC01CD010895AE
:1009A000BB274A3031F4992322F4BDE2909581951A
:1009B0009F4F0C94DC04BB27FB015527AA27880F07
:1009C000991FAA1FA41710F0A41B83955051B9F7C3
:1009D000A05DAA3308F0A95DA193009779F7B11142
:1009E000B1931192CB010C940E07AEE0B0E0EBEFA7
:1009F000F4E00C94C6070D891E8986E08C831A8367
:100A000009838FEF9FE79E838D83AE01475E5F4F23
:100A10006F89788DCE0101960E941705EF81F885C8
:100A2000E00FF11F10822E96E4E00C94E207ABE099
:100A3000B0E0EDE1F5E00C94B8076C017B018A01B0
:100A4000FC0117821682838181FFCCC1CE01019601
:100A50003C01F6019381F70193FD859193FF81910C
:100A60007F01882309F4BAC1853239F493FD859159
:100A700093FF81917F01853229F4B60190E00E94B5
:100A80001E07E7CF912C212C312CFFE1F315D8F074
:100A90008B3279F038F4803279F08332A1F4232D4F
:100AA00020611DC08D3261F0803369F4232D2160F7
:100AB00016C0832D8260382EE32DE4603E2E2AC0BE
:100AC000F32DF8601DC037FC2DC020ED280F2A3013
:100AD00040F08E32B9F436FC81C1232D2064322ED1
:100AE00019C036FE06C08AE0989E200D1124922E71
:100AF00011C0EAE02E9E200D1124222EF32DF0626B
:100B00003F2E08C08C3621F4832D8068382E02C019
:100B1000883641F4F70193FD859193FF81917F0120
:100B20008111B3CF982F9F7D9554933028F40C5F9B
:100B30001F4F9FE399830DC0833631F0833771F0E7
:100B4000833509F059C021C0F801808189830E5F87
:100B50001F4F88248394912C530113C02801F2E085
:100B60004F0E511CF801A080B18036FE03C0692DE4
:100B700070E002C06FEF7FEFC5010E9403074C01D8
:100B80008201F32DFF773F2E16C0280122E0420E8E
:100B9000511CF801A080B18036FE03C0692D70E0C1
:100BA00002C06FEF7FEFC5010E94F8064C01F32DE4
:100BB000F0683F2E820133FC1BC0822D90E0881626
:100BC0009906B0F4B60180E290E00E941E072A94D4
:100BD000F4CFF50137FC859137FE81915F01B601B5
:100BE00090E00E941E0721102A9421E0821A9108A9
:100BF0008114910471F7E8C0843611F0893641F50B
:100C0000F80137FE07C060817181828193810C5F9A
:100C10001F4F08C060817181072E000C880B990B53
:100C20000E5F1F4FF32DFF763F2E97FF09C0909563
:100C30008095709561957F4F8F4F9F4FF0683F2E45
:100C40002AE030E0A3010E945A07882E861845C08A
:100C5000853731F4232D2F7EB22E2AE030E025C0D7
:100C6000932D997FB92E8F36C1F018F4883579F01D
:100C7000B5C0803719F0883721F0B0C0E92FE061A6
:100C8000BE2EB4FE0DC0FB2DF460BF2E09C034FE95
:100C90000AC0292F2660B22E06C028E030E005C029
:100CA00020E130E002C020E132E0F801B7FE07C0E9
:100CB00060817181828193810C5F1F4F06C06081CA
:100CC000718180E090E00E5F1F4FA3010E945A07E0
:100CD000882E8618FB2DFF773F2E36FE0DC0232D64
:100CE0002E7FA22E891458F434FE0BC032FC09C0AA
:100CF000832D8E7EA82E05C0B82CA32C03C0B82C43
:100D000001C0B92CA4FE0FC0FE01E80DF11D8081C9
:100D1000803321F49A2D997EA92E09C0A2FE06C027
:100D2000B394B39404C08A2D867809F0B394A3FCDD
:100D300011C0A0FE06C0B21488F4280C922C9B1897
:100D40000EC0B21460F4B60180E290E00E941E076B
:100D5000B394F7CFB21418F42B1802C0982C212C9E
:100D6000A4FE10C0B60180E390E00E941E07A2FE20
:100D700017C0A1FC03C088E790E002C088E590E0BE
:100D8000B6010CC08A2D867859F0A1FE02C08BE214
:100D900001C080E2A7FC8DE2B60190E00E941E0730
:100DA000891438F4B60180E390E00E941E079A94FB
:100DB000F7CF8A94F301E80DF11D8081B60190E030
:100DC0000E941E078110F5CF222009F442CEB60101
:100DD00080E290E00E941E072A94F6CFF6018681F9
:100DE000978102C08FEF9FEF2B96E2E10C94D4071E
:100DF000FC010590615070400110D8F780959095E6
:100E00008E0F9F1F0895FC016150704001900110EA
:100E1000D8F7809590958E0F9F1F0895DC01FC01F7
:100E2000672F71917723E1F7329704C07C916D931E
:100E300070836291AE17BF07C8F308950F931F9395
:100E4000CF93DF93FB01238121FD03C08FEF9FEF41
:100E50002CC022FF16C0468157812481358142175C
:100E6000530744F4A081B1819D012F5F3F4F31832F
:100E700020838C93268137812F5F3F4F37832683D2
:100E800014C08B01EC01FB010084F185E02D099574
:100E9000892BE1F6D80116968D919C9117970196B2
:100EA00017969C938E931697CE01DF91CF911F9149
:100EB0000F910895FA01AA27283051F1203181F1CC
:100EC000E8946F936E7F6E5F7F4F8F4F9F4FAF4F52
:100ED000B1E03ED0B4E03CD0670F781F891F9A1F65
:100EE000A11D680F791F8A1F911DA11D6A0F711D19
:100EF000811D911DA11D20D009F468943F912AE025
:100F0000269F11243019305D3193DEF6CF0108950C
:100F1000462F4770405D4193B3E00FD0C9F7F6CF3D
:100F2000462F4F70405D4A3318F0495D31FD405205
:100F3000419302D0A9F7EACFB4E0A695979587959B
:100F400077956795BA95C9F700976105710508957A
:100F50009B01AC010A2E0694579547953795279526
:100F6000BA95C9F7620F731F841F951FA01D0895BE
:100F70002F923F924F925F926F927F928F929F92A9
:100F8000AF92BF92CF92DF92EF92FF920F931F9397
:100F9000CF93DF93CDB7DEB7CA1BDB0B0FB6F89448
:100FA000DEBF0FBECDBF09942A88398848885F8488
:100FB0006E847D848C849B84AA84B984C884DF80F9
:100FC000EE80FD800C811B81AA81B981CE0FD11DDD
:100FD0000FB6F894DEBF0FBECDBFED010895F894B3
:020FE000FFCF41
:0E0FE20025692025692025690020000A0000ED
:00000001FF
